:020000040800F2
:10000000B81B00200101000871630008EB5C0008C8
:10001000BD620008475A00084F7A0008000000003F
:10002000000000000000000000000000D968000887
:10003000E95A000800000000EB650008B96B0008F1
:100040001B0100081B0100081B0100081B01000820
:100050001B0100081B0100081B0100081B01000810
:100060001B0100081B0100081B0100081B01000800
:100070001B0100081B0100081B0100081B010008F0
:100080001B0100081B0100081B0100081B010008E0
:100090001B0100081B0100081B0100081B010008D0
:1000A0001B0100081B0100081B0100081B010008C0
:1000B000956F00081B0100089D7300081B010008D4
:1000C0001B0100081B0100081B0100081B010008A0
:1000D0001B010008C57700081B0100081B01000870
:1000E0001B0100081B0100081B010008DFF80CD0F1
:1000F00005F06CFC0048004711D40008B81B002034
:100100000648804706480047FEE7FEE7FEE7FEE7B1
:10011000FEE7FEE7FEE7FEE7FEE7FEE7C96B000845
:10012000ED000008FE49C1F8E80070472DE9F04FE6
:10013000DFF8ECB30026044685B0174698468A4699
:100140003546B146DBF8AC0005F086F93A46434641
:1001500005F03AFA7ED3DBF8B00005F07DF93A46B7
:10016000434605F049FAF5D3B4F90000B4F9061096
:10017000401A05F071F93A46434605F025FA00D2D7
:100180000126B4F90E00B4F91410401A05F064F910
:100190003A46434605F018FA00D2761CB4F91C0022
:1001A000B4F92210401A05F057F93A46434605F0D3
:1001B0000BFA00D2761CDB4B012E4BDC00223846BA
:1001C000414605F02DF807460E46B4F90000B4F993
:1001D0000610401A05F040F93A46334605F00CFA8D
:1001E00000D20125B4F90E00B4F91410401A05F03C
:1001F00033F93A46334605F0FFF900D26D1C31461B
:100200003E460F46B4F91C00B4F92210401A05F01E
:1002100023F932463B4605F0EFF900D26D1C002D64
:1002200003DD022005B0BDE8F08F002606EB460096
:1002300004EB80050390B5F90A0005F00DF9DAE941
:10024000047843463A4604F0E5FF83460091B5F949
:10025000040000E053E005F0FFF843463A4604F09E
:10026000D9FF5A46009B04F0DBFF83460291B5F9A3
:10027000080005F0F1F8DAE9027843463A4604F05E
:10028000C9FFCDE90001B5F9020005F0E5F84346E4
:100290003A4604F0BFFFDDE9002304F0C1FF8046C9
:1002A0000491B5F9060005F0D7F8DAE900572A46B7
:1002B0003B4604F0AFFFCDE90001039834F920007C
:1002C00005F0CAF82A463B4604F0A4FFDDE9002306
:1002D00004F0A6FF4246049B04F0FBFE5A46029B34
:1002E00004F0F7FE0022134605F06EF901D209F181
:1002F0000109761C032E99DBB9F1020F01DA012006
:1003000090E700208EE788490A684B68D00180EAB0
:10031000D20080EA031048608B68520380EAC3036E
:1003200082EA5312520282EAD0208B600860704742
:1003300070B50546FFF7E7FF05F073F87B4904F059
:100340004CFE6FF01F06314604F0B7FE09F048FA84
:100350000446FFF7D8FF05F064F8314604F0ADFE1F
:1003600010F0FF4F01D14FF07E5005F019F90CF05D
:10037000A1FE00224FF0404304F052FF05F054F973
:100380000FF012F9294604F028FE2146BDE870401E
:1003900004F023BE2DE9FE4F054690460E46184652
:1003A00005F0FEF8CDE90010D6E9302304F038FF5F
:1003B00004460F46404605F0F3F80291F5E9302374
:1003C000834604F02DFF22463B4604F082FE65E89A
:1003D00030010024DDE90010074606EBC400824628
:1003E0000CC8384604F01CFF05EBC4078046D7E96B
:1003F000002389465846029904F012FF42464B46B4
:1004000004F067FEC7E90001DDE90010DAE9242302
:1004100004F006FFD7E9242380468946584602990E
:1004200004F0FEFE42464B4604F053FE641CC7E94E
:100430002401062CCEDB0024DDE90010074606EB84
:10044000C400D0E91223384604F0EAFE05EBC402EA
:100450000746D2E912C38846914658460299624639
:1004600004F0DEFE3A46434604F033FE641CC9E95C
:100470001201092CE0DB0024DDE90010074606EB41
:10048000C400D0E90C23384604F0CAFE05EBC402D0
:100490000746D2E90CC388469146584602996246FF
:1004A00004F0BEFE3A46434604F013FE641CC9E95C
:1004B0000C01032CE0DBBDE8FE8F2DE9F04F044674
:1004C00091B00F46086804F0C7FFCDE90E0105465C
:1004D0000E46786804F0C0FF81468A46B86804F08A
:1004E000BBFF83468846D4E930015F460022104BAB
:1004F00004F0EFFDC4E93001D4E90C012A4633468B
:1005000004F0E7FDC4E90C01D4E90E014A46534664
:1005100004F0DFFDC4E90E0143463A460AE000005C
:10052000980A00200000044034010020DB0FC9407D
:100530000000F03FD4E9100104F0CBFDC4E9100144
:100540002A4633462846314604F06AFECDE90501C5
:10055000D4E9002304F0BDFDC4E900014A46534636
:100560002846314604F05CFECDE90001D4E90223BF
:1005700004F0AFFDC4E9020143463A46284631463D
:1005800004F04EFECDE90301D4E9042304F0A1FDFB
:10059000C4E904014A4653464846514604F040FE29
:1005A000CDE90701D4E9062304F093FDC4E906016F
:1005B00043463A464846514604F032FED4E9082301
:1005C00004F087FDC4E908013A4643461046414617
:1005D00004F026FED4E90A2304F07BFDC4E90A01F5
:1005E000DDE905012A46334604F01AFED4E9122358
:1005F00004F06FFDC4E91201DDE900014A465346EB
:1006000004F00EFED4E9142304F063FDC4E91401E0
:10061000DDE9030143463A4604F002FED4E916231D
:1006200004F057FDC4E91601DDE900012A4633460E
:1006300004F0F6FDD4E9182304F04BFDC4E91801D9
:10064000DDE9070153464A46CA461F46CDE9000187
:1006500004F0E6FDCDE90210D4E91A2304F039FDD7
:10066000C4E91A015D46434646465A465046394655
:1006700004F0D6FD834633462A46049104F0D0FDAB
:10068000D4E91C2304F025FDC4E91C01DDE90E8337
:10069000994642463146284604F0C2FD42464B4642
:1006A00004F0BEFDD4E91E2304F013FDC4E91E01CD
:1006B000584652463B46049904F0B2FDD4E9202343
:1006C00004F007FDC4E920012A46334610463146AE
:1006D00004F0A6FD33462A4604F0A2FDCDE906014A
:1006E000D4E9222304F0F5FCC4E9220142464B463A
:1006F0004046494604F094FD834642464B460C91E1
:1007000004F08EFD42464B4604F08AFDD4E92423D2
:1007100004F0DFFCC4E92401DDE9021052463B4647
:1007200004F07EFDD4E9262304F0D3FCC4E92601BD
:10073000DDE9060133462A4604F072FDD4E9282398
:1007400004F0C7FCC4E92801584652463B460C99C0
:1007500004F066FD52463B4604F062FDD4E92A23CC
:1007600004F0B7FCC4E92A01584633462A460C99DE
:1007700004F056FD33462A4604F052FDD4E92C23FA
:1007800004F0A7FCC4E92C01DDE9000133462A4648
:1007900004F046FD33462A4604F042FDD4E92E23F8
:1007A00004F097FCC4E92E0111B03CE52DE9F74FA8
:1007B0000446B8B0D4E90C0102460B46CDE9040169
:1007C00004F02EFDD4E90023CDE90C23D4E9305602
:1007D000074688462846314604F022FD43463A46FD
:1007E00004F018FDCDE90201D4E90E0102460B46E2
:1007F000CDE91A0104F014FDD4E906230746884622
:1008000028463146CDE9102304F00AFD43463A4616
:1008100004F000FDCDE90001D4E9100102460B46C9
:10082000CDE90E0104F0FCFCD4E90A230746884612
:1008300028463146CDE9142304F0F2FC43463A46FB
:1008400004F0E8FCCDE90801DDE91A210B46DDE9F9
:10085000040104F0E5FCD4E9022307468846284653
:10086000314604F0DDFC43463A4604F0D3FC3491B3
:10087000DDE90E2182460B46DDE9040104F0D0FCDF
:10088000D4E90423074688462846314604F0C8FCCC
:100890003A46434604F0BEFC8946DDE90E21834614
:1008A0000B46DDE91A0104F0BBFCD4E90823074636
:1008B00088462846314604F0B3FC3A46434604F0E5
:1008C000A9FC07468846DDE90401DDE9142304F0AC
:1008D000A7FCCDE90A01D4E916232846314604F0E5
:1008E0009FFCCDE91601DDE90401DDE9102304F0E8
:1008F00097FCCDE91201D4E914232846314604F0CF
:100900008FFCCDE90601DDE90401DDE90C2304F0EB
:1009100087FCCDE90401D4E912232846314604F0CE
:100920007FFCDDE9042304F075FCDDE9062304F017
:10093000D0FBDDE9122304F06DFCDDE9162304F0A1
:10094000C8FBDDE90A2304F065FC4FF0FF3204F038
:1009500048FDCDE92601DDE91A01DDE9142304F0A3
:100960005FFCCDE91601D4E91C232846314604F08A
:1009700057FCCDE91201DDE91A01DDE9102304F08D
:100980004FFCCDE90A01D4E91A232846314604F088
:1009900047FCCDE90601DDE91A01DDE90C2304F08D
:1009A0003FFCCDE90401D4E918232846314604F080
:1009B00037FCDDE9042304F02DFCDDE9062304F017
:1009C00088FBDDE90A2304F025FCDDE9122304F0AD
:1009D00080FBDDE9162304F01DFC4FF0FF3204F02C
:1009E00000FDCDE90401DDE90E01DDE9142304F089
:1009F00017FCCDE90A01D4E922232846314604F048
:100A00000FFC0DF1380CCDE906019CE80F0004F055
:100A100007FCCDE91001D4E920232846314604F033
:100A2000FFFBCDE91201DDE90E01DDE90C2304F045
:100A3000F7FBCDE90C01D4E91E232846314604F02A
:100A4000EFFBDDE90C2304F0E5FBDDE9122304F004
:100A500040FBDDE9102304F0DDFBDDE9062304F0B3
:100A600038FBDDE90A2304F0D5FB4FF0FF3204F038
:100A7000B8FC37910546DDE90201DDE9002304F009
:100A8000CFFBDDE9082304F0CBFBCDE90601DDE96E
:100A900002013A46434604F0C3FB3A46434604F09B
:100AA000BFFBCDE90A01DDE900015A464B4604F0DF
:100AB000B7FB5A464B4604F0B3FBCDE90C010122CB
:100AC0005046349904F08DFC5A464B4604F0A8FB7E
:100AD0003A46434604F0A4FB06460E91DDE90801C0
:100AE0005246349B04F09CFB5246349B04F098FB26
:100AF00032460E9B04F08EFBDDE90C2304F0E9FA8C
:100B0000DDE90A2304F0E5FADDE9062304F082FBBF
:100B100000221346CDE90C0104F056FD7ED03A4682
:100B200043465046349904F07BFB2A46379B04F039
:100B300077FBCDE90A01DDE908015246349B04F058
:100B40006FFBCDE92310DDE9042304F069FBCDE957
:100B50000601DDE90001DDE9082304F061FBDDE9C0
:100B6000262304F05DFBCDE910013A4643461046CA
:100B7000194604F055FBDDE9262304F051FBCDE9CD
:100B80000E01DDE904233846414604F049FB0646E0
:100B90001291DDE900012A46379B04F041FB324601
:100BA000129B04F037FB5A464B4604F039FBDDE953
:100BB0000E2304F08EFADDE9102304F02BFBDDE9AF
:100BC000062304F086FADDE90A2304F023FBCDE9CD
:100BD00012015A464B465046349904F021FB1991B4
:100BE00006462A46379B04F01BFBCDE90A01DDE9E6
:100BF0002310DDE9262304F013FBCDE90601DDE92E
:100C00000201DDE9082304F00BFBDDE9042304F015
:100C100007FB5A464B46CDE90E0100E006E11046BF
:100C2000194604F0FDFADDE9042304F0F9FACDE9F0
:100C30000801DDE926235846494604F0F1FACDE9DA
:100C40001001DDE902012A46379B04F0E9FADDE9EB
:100C5000102304F0DFFA3A46434604F0E1FADDE9F6
:100C6000082304F036FADDE90E2304F0D3FADDE9B7
:100C7000062304F02EFADDE90A2304F0CBFACDE9CD
:100C80000E01DDE904233046199904F0C9FA06463D
:100C90000891DDE900015A464B4604F0C1FADDE94E
:100CA000262304F0BDFACDE90601DDE90201DDE904
:100CB000002304F0B5FA2A46379B04F0B1FACDE9D7
:100CC0000001349B52461046194604F0A9FA2A4600
:100CD000379B04F0A5FADDE926238B460A9050469F
:100CE000349904F09DFA0DF1080C054689469CE8FC
:100CF0000F0004F095FA2A464B4604F08BFA3A4668
:100D0000434604F08DFA5B460A9A04F0E2F9DDE905
:100D1000002304F07FFADDE9062304F0DAF9324615
:100D2000089B04F077FA05460E46DDE91201DDE97D
:100D30000C2304F0E7FA399A81468A46C2E9000199
:100D4000DDE90E01DDE90C2304F0DCFA399A0746EF
:100D50008846C2E90201DDE90C232846314604F049
:100D6000D1FA399A05460E46C2E90401D4E91023A6
:100D700004F056FA0291D4E90E23834638464146E0
:100D800004F04EFACDE90001D4E90C23484651465F
:100D900004F046FADDE9002304F09BF95A46029B71
:100DA00004F097F9012204F01CFB83460091D4E97A
:100DB0000001D4E9062304F08CF9D4E90A2304F0F5
:100DC00088F95A46009B04F025FAD4E9302304F050
:100DD00099FACDE900012A4633461046194604F037
:100DE0001FFA04468B463A4643461046194604F01D
:100DF00017FA05460E464A4653461046194604F071
:100E00000FFA2A46334604F064F95B46224604F0A2
:100E100060F9DDE9002304F05CF90EF09FFB3A9ADB
:100E2000C2E9000101203BB0BDE8F08F0020FAE7E5
:100E30002DE9F34F9DB004461E98D0E90067324675
:100E40003B463046394604F0EBF9D4E90C939A4618
:100E50004A4604F0E5F94A46534604F0E1F90546EE
:100E60008846D4E9300132463B46CDE9080104F01A
:100E7000D7F932463B46CDE90B0104F0D1F9D4E96C
:100E80000023CDE9062304F0CBF92A46434604F0BB
:100E9000C1F90191DDE9062383463046394604F065
:100EA000BFF94A46534604F0BBF905468846DDE9DA
:100EB0000B01D4E9122304F0B3F95A46019B04F064
:100EC000ACF92A46434604F004F9CDE900010122B9
:100ED0003046394604F085FA1E9ACDE90201D2E97E
:100EE000025398462A4604F09BF94A46534604F0BA
:100EF00097F9D4E90E23CDE9042304F091F9834650
:100F00000A91DDE90801012204F06BFA32463B4602
:100F1000CDE9140104F084F943462A46CDE90F01D6
:100F200004F07EF9D4E9022304F07AF9DDE9002324
:100F300004F0CFF85A460A9B04F06CF9CDE90001A1
:100F40004A4653463046394604F06AF9CDE90D0168
:100F5000D4E906B35A460A9304F062F906460F46EE
:100F6000DDE90B01D4E9142304F05AF9DDE900238B
:100F700004F053F932463B4604F0ABF8CDE90001EA
:100F8000DDE902011E9AD2E904631F46324604F0ED
:100F900047F94A46534604F043F9D4E91023CDE912
:100FA000022304F03DF981468A46DDE90F013B4604
:100FB000324604F035F9D4E9042304F031F9DDE9CF
:100FC000002304F086F84A46534604F023F9CDE99D
:100FD0000001DDE90D01D4E90A939A464A4604F07E
:100FE0001FF9CDE90E01DDE90B01D4E9162304F068
:100FF00017F9DDE9002304F010F9DDE90E2304F010
:1010000068F8CDE90001DDE906016FF0010204F0A6
:10101000E8F9DDE9062304F003F9CDE90C01DDE987
:1010200008016FF0010204F0DCF9CDE90E01D4E90A
:10103000242304F0F5F8DDE9002304F04AF8DDE9A3
:101040000C2304F0E7F8CDE90001DDE9062328468A
:10105000414604F0E5F8DDE9042304F0E1F8CDE9C8
:101060001201DDE908012A46434604F0D9F8CDE92A
:101070000B01D4E9182304F0D3F8DDE9002304F0D0
:10108000CCF8DDE9122304F024F8CDE90001DDE914
:1010900006014FF0FF3204F0A4F95A46CDE91601DB
:1010A0000A9B04F0BDF8CDE91A01DDE908014FF013
:1010B000FF3204F096F9CDE91101D4E92A2304F0B6
:1010C000AFF8DDE9002304F004F8DDE91A2304F0A9
:1010D000A1F8CDE90001DDE906233046394604F0E8
:1010E0009FF8DDE9022304F09BF8CDE91A01DDE960
:1010F000080132463B4604F093F8CDE90601D4E9F5
:101100001E2304F08DF8DDE9002304F086F8DDE904
:101110001A2303F0DEFFCDE90001DDE916014A469E
:10112000534604F07DF8CDE90801DDE91101D4E969
:101130002C2304F075F8DDE9002303F0CAFFDDE994
:10114000082304F067F8CDE900012A46434610461B
:10115000194604F065F8DDE9042304F061F8DDE9DF
:10116000042304F05DF8CDE91601DDE90B012A4600
:10117000434604F055F85A460A9B04F051F8DDE95D
:10118000002303F0A6FFDDE9162304F043F8CDE9C0
:1011900000015A46284641460A9B04F041F8DDE921
:1011A000042304F03DF8CDE91601DDE90B01D4E993
:1011B0001A2304F035F8DDE9002304F02EF8DDE908
:1011C000162303F086FFCDE900010122284641469F
:1011D00004F007F932463B4604F022F8DDE9042327
:1011E00004F01EF8DDE9022304F01AF8CDE9080145
:1011F000DDE914012A46434604F012F832463B4624
:1012000004F00EF8D4E9082304F00AF8DDE900231D
:1012100003F05FFFDDE9082303F0FCFFCDE90001E7
:10122000DDE904232846414603F0FAFF4A465346C7
:1012300003F0F6FF80460D46DDE90B01D4E91C23DF
:1012400003F0EEFFDDE9002303F0E7FF42462B4603
:1012500003F03FFF054601916FF0010258460A99DD
:1012600004F0BFF85A460A9B03F0DAFF804600916B
:10127000DDE90E01D4E9262303F0D2FF2A46019BC3
:1012800003F027FF4246009B03F0C4FF80460D4653
:101290005A46304639460A9B03F0C2FFDDE9022375
:1012A00003F0BEFFCDE90001DDE90601D4E920230A
:1012B00003F0B6FF42462B4603F0AFFFDDE9002303
:1012C00003F007FF054688464FF0FF3258460A995B
:1012D00004F087F84A46534603F0A2FF8346009184
:1012E000DDE91101D4E92E2303F09AFF2A46434693
:1012F00003F0EFFE5A46009B03F08CFF054688463C
:1013000032463B461046194603F08AFFDDE90223C8
:1013100003F086FFDDE9022303F082FF834600919C
:10132000DDE9060132463B4603F07AFF4A46534662
:1013300003F076FF2A46434603F0CBFE5A46009B55
:1013400003F068FF054688464A465346304639460C
:1013500003F066FFDDE9022303F062FF06460F4655
:10136000DDE90601D4E9222303F05AFF2A46434669
:1013700003F053FF32463B4603F0ABFE0746884678
:101380006FF001024846514604F02BF84A46534696
:1013900003F046FF06460D46DDE90E01D4E9282399
:1013A00003F03EFF3A46434603F093FE1FB0324639
:1013B0002B46BDE8F04F03F02DBF30B50446B0F822
:1013C0008C0089B000040690B4F88E000D4600042D
:1013D0000790B4F8900088340004089002A80AF03E
:1013E000B9FB029906982B46401A06900399079874
:1013F00006AA401A079004990898401A0890208875
:10140000616A80B20AF0F6F909B030BD2DE9F04703
:1014100086B00D466946FFF7D0FF002637463446B2
:10142000E9466FF00F0A0DF10C0859F8240003F09B
:10143000EFFF514603F041FE48F82400014603F057
:10144000CCFD04F0ADF832463B4603F042FE641C8E
:1014500006460F46032CE8DB0EF080F806460F46E2
:10146000002458F8240004F09BF832463B4603F071
:1014700049FF04F0D9F855F8241003F056FD45F85B
:101480002400641C032CECDB686D401C68650AF0CA
:1014900049FEE86706B0BDE8F0872DE9F041044653
:1014A0000AF024FC40BB0AF0A5FB042824D0FE4926
:1014B00020460E46FFF7AAFFFC4DD5E95C018142AC
:1014C00005DB304603F0FDF90020C5F87401208EDD
:1014D0004FF00406C00515D504F118000AF0F8FB1A
:1014E0008009B0F5C87F0AD2D5F8B800002850DDD1
:1014F000401EC5F8B8004AE00120BDE8F081C5F8FB
:10150000B86044E0D4F8A010D5F81401081A01D44A
:10151000034600E04342E44A4FF4A02C583A6345A6
:1015200005DDD4E929035365C2E913102FE0031246
:10153000D4F8A470D5F818015B43381A01D4864654
:1015400001E0C0F1000EE64505DDD4F8A800D16445
:10155000C2E914701BE0001200FB0033D4F8A800AD
:10156000D5F81C11401A01D4014600E04142614502
:101570000DDC001200FB0030B0F5403FB4DBA034BE
:10158000C5F8B86094E80B004C3282E80B000020EC
:10159000B3E70220B1E72DE9F04F93B0C34CD0E997
:1015A0000023D4F8A81004EBC101C1E90023D4F84A
:1015B000A810491CC4F8A810D0E9022304EBC1010B
:1015C000C1E90023D4F8A810491CC4F8A810D0E938
:1015D000042304EBC100C0E90023D4F8A800401C98
:1015E000C4F8A800152802DB0020C4F8A8001822BF
:1015F000AE490CA803F05AFC1822AC4904A803F029
:1016000055FC01260DF130090DF1100AA346002406
:1016100006EB460808EB04010BEBC10509EBC40718
:10162000D5E90023D7E9000103F0E6FF03D2D5E9AD
:101630000001C7E90001D5E900230AEBC407D7E997
:10164000000103F0C1FF03D2D5E90001C7E90001A1
:10165000641C032CDEDB761C072ED8DBDDE90401DD
:10166000DDE90C2303F0D6FD05460C46DDE9060155
:10167000DDE90E2303F0CEFD2A46234603F0A4FF46
:1016800002D22846214605E0DDE90601DDE90E2308
:1016900003F0C0FD05460C46DDE90801DDE9102335
:1016A00003F0B8FD2A46234603F08EFF04D213B0A0
:1016B00028462146BDE8F08FDDE90801DDE9102369
:1016C00013B0BDE8F04F03F0A5BD2DE9F0419CB08B
:1016D000064600240E945520CDE90F401190744D1C
:1016E0000AA80AF001FA12A90AA80AF01FFE16AA0F
:1016F0000EA912A80AF035FE6A460AA916A80AF031
:1017000030FE01986B4F00F596700190029800F53D
:1017100096700290039800F5967003903846FEF795
:1017200007FE03F0B7FE0199084401903846FEF722
:10173000FFFD03F0AFFE0299084402903846FEF721
:10174000F7FD03F0A7FE039908440390304601A972
:10175000FEF7B3FED6E930010022574B03F04CFFF1
:1017600035D21AAA04A93046FFF720F878B3DFF87B
:101770004C81DDE908010022434603F04BFD02469F
:101780000B4603F04DFD06460F46DDE9060100223B
:10179000434603F03FFD02460B4603F041FD04467D
:1017A0000D46DDE904010022434603F033FD024605
:1017B0000B4603F035FD22462B4603F08AFC3246E9
:1017C0003B4603F086FC0DF0C9FE04460D461CB0F6
:1017D00020462946BDE8F0410022394B03F092BD76
:1017E00010B5E821374803F088FB3048364920F827
:1017F000BC1F4A0CC280C1818282818342842B48F3
:10180000E821E83803F079FB28490020C1F8B4004A
:1018100010BD2DE9F04F254F0446C5B0006BC7F849
:10182000A0012046FFF739FE00287DD1D7F894119A
:1018300007F1BC003D90012911D1B4F98C00409012
:10184000B4F98E004190B4F99000429040A91D482F
:10185000FEF733FE04F18C013D9800F023FBD7F82E
:101860000801002802DD401EC7F8080115480022C3
:10187000E8381346D0E93051284603F0BDFE7CD24B
:101880001049E822E839684603F010FB0D4840A9EA
:10189000E838FEF712FE0B493EAA2039A1F1C80034
:1018A0004391FEF783FF11E0B80B0020980A002057
:1018B00000408F40000028410000344000C07240CA
:1018C00000000840C80800200080FFFF002866D004
:1018D000FE484399FFF7ACFAD7E9402305460E4688
:1018E000E03703F097FCDFF8E4B380468946DBE994
:1018F00030010022F64B03F08DFC02460B464046B9
:10190000494603F0FFFC0DF029FEDBE9308B8146F0
:101910008A460022EE4B4046594603F07BFC424685
:101920005B4603F07DFC00E0C1E080468B4601226F
:101930002846314603F055FD42465B4603F0E2FC83
:101940000DF00CFEB86803F02BFE77E8382303F0A7
:1019500067FC4A46534603F037FE03D3D7F8080125
:10196000002822DDE8226946D84803F09FFAD7F81C
:10197000E800E03703F014FE00E00FE077E83823DA
:1019800003F04EFC4A46534603F01EFE4CD24FF481
:10199000FA7001F07BFD0A20C7F8080144E0E82254
:1019A0006946CA4803F082FA3EE0D7F89801012858
:1019B0003AD1D7F8B400401CC7F8B40000200BF0AF
:1019C0009BF9DFF808831022D8E9320103F009FD02
:1019D00003F0AEFD3A90D8E93401102203F001FD86
:1019E00003F0A6FD3B90D8E93601102203F0F9FC84
:1019F00003F09EFD3C9003213AA80BF0E1F8D8E9F2
:101A000030010022B34B03F0F7FD0BD2B24A41463E
:101A100013460846FEF7BEFC40464399FFF708FA16
:101A200005460E46C7E94056208EC00509D5B4F8D4
:101A30007400C00505D5A948FFF747FE05460E46C8
:101A400001E0A74E0025A1480022E830A54BD0E9CF
:101A5000301C0846614603F0B7FD28D39F493EAAD3
:101A60002039A1F1C8000291FEF7A0FE00287DD028
:101A7000D4F8AC0003F0F0FC02460B469A489B49B0
:101A800003F040FC804689460298FFF784FD8246B9
:101A90008B4642464B4603F0AFFD09D20022944BE1
:101AA0002846314603F090FD02D2FFF799FE8EE101
:101AB00042464B465046594603F086FD7ED20022F0
:101AC0008C4B2846314603F07FFDF7D27F4E002233
:101AD000E836894BD6E9300103F08EFDEED2DFF80F
:101AE000ECB100221346DBE9300103F06DFD72D149
:101AF00030460299FFF79CF9B84607F58077B14662
:101B000003C7D6F8C060D9F8C47004460D46002259
:101B10006F4B3046394603F07DFB32463B4603F0BF
:101B20007FFB06460F4601222946204603F059FC5A
:101B300032463B4603F0E6FB0DF010FD04460D4631
:101B4000D8F8E80003F02CFDD8E9382303F068FB4F
:101B500022462B4603F038FDA7D33DAC029994E80A
:101B60000D00FEF7E3FA02289FD000E030E10028E4
:101B70009DD1D8F89801012899D100200BF0BCF82C
:101B80004C461022F4E9320103F02BFC03F0D0FCA8
:101B90003A90D4E90201102203F023FC03F0C8FCC0
:101BA0003B90D4E90401102203F01BFC03F0C0FCBD
:101BB0003C9003213AA80BF003F801E0FDE00AE0B5
:101BC00001200BF02DF8192003900490059003A834
:101BD0000BF01CF8E8E0B946D7F8B40003F03CFC81
:101BE000D6E9302303F08EFB444A454B03F004FD55
:101BF000B2D336480299E830FFF71AF9B246D6F860
:101C0000C060DAF8C47080460D460022304B304682
:101C1000394603F0FFFA32463B4603F001FB064625
:101C20000F4601224046294603F0DBFB32463B4685
:101C300003F068FB0DF092FC06460F46D9F8E80069
:101C400003F0AEFCD9E9382303F0EAFA32463B460A
:101C500003F0BAFCCCD33DAE029996E80D00FEF736
:101C600065FA00287ED15F465646D7E93623D6E985
:101C70003601C836C83703F0CDFA02460B4603F0EA
:101C8000CFFAD7E9022382468B46D6E9020103F058
:101C9000C1FA02460B4603F0C3FACDE90001D7E9C9
:101CA000002376E8320103F0B5FA02460B4603F052
:101CB000B7FADDE9002303F00CFA52465B4603F065
:101CC00008FA0DF04BFC07468A461BE0E0070020AF
:101CD0000000F03F00409F406666E63EB0090020ED
:101CE00000000840000034409A9999999999A941B7
:101CF0000000F83F0000104000003E400AD7A370EB
:101D00003D0AE73FD4F8AC0003F0A6FB3A46534641
:101D100003F086FA6FF01D0203F063FB04460F46E2
:101D200000228D4B03F068FC15D300228B4B20461C
:101D3000394603F061FCBFF4B8AED9F8B40003F043
:101D40008BFBD6E9302303F0DDFA4FF03332844BBE
:101D500003F03AFCEFD2D9F898014C4601287FF401
:101D6000A4AE00E033E000200AF0C6FFC4E94085DD
:101D7000F6E93201102203F034FB03F0D9FB3A906C
:101D8000D6E90201102203F02CFB03F0D1FB3B90BB
:101D9000D6E90401102203F024FB03F0C9FB3C90B8
:101DA00003213AA80AF00CFF6E494FF07E5300223F
:101DB000A1F1E800FEF7EEFA77E66A4800226A4BE6
:101DC000D0E930140846214603F016FCF4D3002075
:101DD00045B06FE470B5654C0546D4F80C0110B9F8
:101DE000284600F08AF8D5F8B01044F62060814209
:101DF0000ADAD4F8102111448142C4F810114FF0CE
:101E0000000005DBC4F810012846BDE8704000E57D
:101E100070BD04224FF4C871AFF247000AF018BD3C
:101E2000AFF24F000BF0E4B84E4810B5E821E838A7
:101E300003F063F8FFF7D4FC4FF4D4714B4803F080
:101E40005CF84A4C4FF07E50C4F8E80004F59070FE
:101E500004F5887402F09FFC0A2020664FF082404F
:101E6000E0641E20E0664248A0674248606742483E
:101E7000E067002010BD10B5FFF7D6FF002805D1A0
:101E8000AFF27100BDE810400AF0A6BD10BD10B55C
:101E9000AFF2BF000BF0ACF8AFF28900BDE8104024
:101EA0000BF0D8B830B50022C2EBC20331F91240B2
:101EB00030F91350AC420ADD02EB42040D8820F8E1
:101EC000245000EB84044D8865808D88A58000EB4C
:101ED000430331F91240B3F906309C4209DA02EBB0
:101EE000420300EB83030C88DC804C881C818C88C7
:101EF0005C81521C032AD7DB30BD70B51B4DD0F876
:101F0000AC200446EAB1D3170020192102F07CFF6F
:101F100045F8AC0F54F8AC2F0020D317052102F080
:101F200073FF686022680020D317962102F06CFFCF
:101F300003F092FAC5E90D01AC3D0120C5F80C0192
:101F400070BD6FF00040C5F8AC00C5F8B0000B499B
:101F50008005C5E93801F0E70000104000000440AA
:101F60003333C33FC808002000409F40980A002038
:101F7000CDCCCC3E3333333F9A99193FFFFFDF413D
:101F800010B5F949C4074FF040434FF0804205D0E7
:101F90008B66CB66C1E91C328A67CA67840709D59C
:101FA000C1F80031C1F80431C1E94232C1F8102151
:101FB000C1F81421400709D5C1F89831C1F89C3106
:101FC000C1E96832C1F8A821C1F8AC2110BD2DE9E2
:101FD000F14F82B0002102988A468946806F00281E
:101FE0007DD000220020401C0428FCDB02984FF02A
:101FF000000C00EBC203D3E90010A1FB0167D3E999
:10200000065400FB017701FB0077CDE90067A64687
:10201000AE1B64EB0704AB460327A6FB075804FB83
:10202000078406FB0C44DDE90067AD197C41A5FB84
:10203000016704FB017405FB0045D3E90C47341B21
:1020400065EB0705CDE900455D46A5FB0567032463
:10205000A6FB04580EFB0B770BFB0E7707FB0484E3
:1020600006FB0C44D3E91263761B63EB04034C18A4
:10207000A4FB017C40EB000505FB01C504FB0055FA
:10208000A7FB014C05FB01C507FB0055A4FB017C28
:1020900005FB01C504FB0054F6196341DDE9004569
:1020A000AD0045EA9475A400A4FB017C05FB01C1C9
:1020B00004FB0014F01B73EB040103D50023404222
:1020C00063EB0101BAEB000479EB010301DA82460C
:1020D0008946521C032A85DB5046494600E010E041
:1020E00003F0A4F9A149896B02F0A9FF03F0FFF9FD
:1020F0009D4AD2F80C2203B09200BDE8F04F02F0E6
:10210000C3BE002003B00146BDE8F08F2DE9F14FBA
:102110000020009A0146926FF2B300240022521C64
:10212000042AFCDB009A02EBC405AA46D5E9002983
:10213000A2FB023CD5E906769E46FB1A0325A3FBCB
:10214000057809FB02CC02FB09CB66EB0B0606FB0C
:1021500005854FF0000C03FB0C5617EB0E03A3FB99
:10216000027C46EB0B0606FB02C203FB0923DAE9FD
:102170000C25BA1AAB4103D50025524265EB030387
:10218000851A71EB030501DA10461946641C032C0D
:10219000C4DB03F04BF900E00EE07449896B02F0F8
:1021A0004EFF03F0A4F9704AD2F80C22BDE8F84FB4
:1021B00002EB420202F068BE00200146BDE8F88F43
:1021C0002DE9FE43684D80460024D5F810626F4625
:1021D00005EBC4013246D1E9020102F046FE05EBEF
:1021E0008401B1F884100904401847F8240004F170
:1021F0000104032CECDB5C489821083002F07DFEE2
:102200000120FFF7BDFE95F8E8010199042807D1E8
:10221000D5F81802B0F5201F02DD052085F8E80189
:10222000524C0098636AC11A01D40E4600E01E1A8F
:102230000198A26A801A01D4074601E0019FD71BCA
:10224000BE4206DD002901D4084606E00098181AAF
:1022500003E0002801D50198101A029AE16A521A87
:1022600001D4134601E0029BCB1A834205DB002A0E
:1022700001D4104601E00298081AD8F824100AF098
:1022800016F8D5F81812814206DD032168460AF0D7
:10229000C9FD02200AF02EFE009860620198A0623B
:1022A0000298E062BDE8FE83304AC2E9020170474D
:1022B0002E4AC2E9060170472C4AC2E90401704760
:1022C000294AD2F8E0310360D2E97402C1E9000280
:1022D0007047254AD2F8E0310360D2E97602C1E9BD
:1022E000000270472DE9FE4781460020EA468A6FCA
:1022F00022B901EB800339F91020DA6701EB800283
:1023000039F91030D46F1D1B4AF82050136E9D42CE
:1023100000DD1566D36E9D4200DAD56601230024E8
:1023200022464FEAE578A3FB056704FB057403FB2F
:102330000844334602EB420601EBC60606EBC00C2E
:10234000DCE90076FF186641CCE90076521C042ACD
:10235000E9DB401C0328CADB886F401C886701202A
:10236000C1F89000BDE8FE87400C0020A00E0020C0
:1023700030B5002302EB830550F823405B1CEC666C
:10238000032BF7DBC2F88810916F79B1002102EBC3
:10239000810450F82130E56F5B1B00D55B42256E50
:1023A0009D4200DA2366491C0329F0DB906F401C34
:1023B00090670120C2F8900030BD10B500210B4697
:1023C00000EB8102491CD46ED46713660329F7DB46
:1023D000D0F8881040F8783FC0E9051310BDD0E967
:1023E0002210081A70470146D1E91802824200DB28
:1023F0001046896E814200DB084670472DE9F047A0
:102400008046501E012686408946C2F1200740467C
:1024100002F03AFD04460D46404649463A4602F06F
:1024200024FD3A4602F030FDB04203DD641C45F164
:10243000000505E07142884202DA641E45F1FF356D
:1024400020462946BDE8F087F74900200862486227
:102450008862C862086448648864C8640863486322
:102460008863C863086548658865C865704730B586
:10247000EE4AD2F8483223B1D2E990542D1A8C4159
:1024800001DAC2E990015B1CC2F8483230BD30B5B8
:10249000E64AD2F8583223B1D2E994542D1A8C412D
:1024A00001DAC2E994015B1CC2F8583230BD30B584
:1024B000DE4AD2F828322BB1D2E98845041B71EBF1
:1024C000050401DAC2E988015B1CC2F8283230BD7C
:1024D00030B5D64AD2F838322BB1D2E98C45041B3C
:1024E00071EB050401DAC2E98C015B1CC2F83832D9
:1024F00030BD2DE9F0470246CC4801250830804622
:10250000C36E016E046FC91A436E1B1B8B4200DB46
:102510001946836ED8F87400181A884200DB014609
:10252000C14F6037F86B884204DA002400F00AFAE1
:10253000204687E7108E0124BC4EC0054FF00001F5
:102540000ED5D6F880303068834209DBB2F87420AB
:10255000D20506D5D6F8B021824201DB052400E081
:102560000C4674B3600719D5AF48C8388146FFF7E9
:102570002EFD000D40EA01300915C6E97601D7E9C4
:1025800004321B1A8A4102DA0025FFF7A1FF9821C5
:10259000484602F0B2FC0420FFF7F2FCE0070ED040
:1025A0004046FFF714FDC6E97C01D7E90634024630
:1025B000181A8C4103DA00251046FFF778FF2846E9
:1025C00040E7FFE702203DE71EB5044690F83000E3
:1025D000C0F38110032804D19449201D0831FFF76E
:1025E00081FE94F87400C0F38110032805D18E4950
:1025F00004F14800C839FFF775FED4F8B8008B4ADB
:10260000C0F38113A0326946032B0FD0C0F34110F1
:1026100003281AD1002004EB8003D3F8A0309B13C9
:1026200041F82030401C0328F5DB09E0002004EBD2
:102630004003B3F98C3041F82030401C0328F6DB0E
:102640006846D4F8C010FFF793FE1EBD2DE9F04791
:1026500005460020296BCA0567D501F050014029C5
:1026600000D1012095F8741001F05001402900D1EB
:10267000012095F8B8106D4C01F05001402900D0B0
:1026800030B100F05FF90020C4F8E00184F8E801FF
:10269000654ED4F80812E86A6036814225D0C4F845
:1026A00008020A28306B0ADA40002060716B491C6E
:1026B000C4F80C1202F0ACFE0CF076FF04E02060CF
:1026C000706BC4F80C02B06BC4F81402D4F80C029E
:1026D000C0F11000C4F810024FF48040C4F8180292
:1026E00096F8341019208840F0632846FFF76CFFF5
:1026F00094F8E811DFF8349105274FF0020809F14A
:10270000A009072911D2DFE801F0041127305E7E0D
:102710008500D4F8E001411CC4F8E0110A2804DB6C
:1027200000F010F9012084F8E80186E0D4F8980060
:10273000012810D12846FFF7DCFE10B1012803D094
:1027400004E084F8E87101E084F8E8814846FFF786
:1027500034FEFFF779FE70E0032084F8E801284694
:10276000FFF72EFD00F0EEF867E02846FFF7C1FE08
:10277000F0B3012861D1B5F8B8004FF00403C005EB
:1027800015D54846FFF72FFE0146C017C4E974105F
:10279000D6E902C2BCEB0101824102DA84F8E87199
:1027A00008E04846FFF71BFE316A884202D384F8EE
:1027B000E83124E0F4E97601FFF769FED4E9060187
:1027C000FFF755FE39E0B5F8B800C0050BD548460F
:1027D000FFF709FE0146C017C4E97410D6E90232BA
:1027E000591A824108DB2846FFF783FE00B100E05A
:1027F00002E0012803D020E084F8E8711DE02846BB
:10280000FFF7DEFCD6E7062084F8E80101200AF095
:1028100071FB0DE02846FFF76CFE012801D038B1AE
:102820000BE084F8E88108E0400E0020400C002016
:1028300000F088F84846FFF7C0FD002002E610B51A
:1028400000214010002802D001F10101F9DC454CC3
:102850004FF0010001F1010100FA01F0C4E90C019F
:1028600002F0D6FD0CF0A0FEA06394F834101920FD
:102870008840E06310BD10B54FF418713A4802F07B
:102880003CFB4021374802F038FB0720FFF778FB7C
:10289000344840F2DC510022C0E906121421C0E99C
:1028A00002124FF41671C0E9041230492E4C016235
:1028B0000120C4F8E4011920FFF7C1FF0020C4F88B
:1028C000080210BD10B54FF41871274802F015FB2F
:1028D0000720FFF755FB244801210022C0F8E4112E
:1028E00080F8E811032101200AF0F6FA072264219A
:1028F000AFF2A720BDE8104009F0AABF10B5012033
:102900000AF0F8FAAFF2BB20BDE810400AF070BB45
:1029100010B5FFF7B0FF002805D1AFF25700BDE8B2
:1029200010400AF059B810BD10B5FFF7E7FFAFF23D
:102930006B00BDE810400AF08DBB0B49D1E97C016A
:1029400070477047084810B59821083002F0D5FA52
:102950009821074802F0D1FABDE810400520FFF7A2
:102960000FBB0000A00E0020400C00200008AF2F7D
:10297000780D00202DE9FC5F0D460026416B99463D
:102980009246B046002904DBD0F8BC00032800D1F1
:102990000126FF492422081F02F088FAFC4FC03F9D
:1029A0000024C7F8E05007EB8400D0F8BC10404684
:1029B00002F0BBFA641C80460A2CF4DBF54902F0F5
:1029C0003EFBF54C80464FF0C80BC7F8E400BAF167
:1029D000320F21DB4846C7F81CB102F019FD009008
:1029E0000190EE49284602F02AFB019902F0F5FA1F
:1029F000214602F024FB0446BAF57A7F33DBE8492E
:102A00002846009C02F01BFB214602F0E6FAE24950
:102A100002F015FB044626E041F2883199FBF1F003
:102A20004042D7F81C1100EB80004018C7F81C0189
:102A300002D50020C7F81C01484602F0E9FC824696
:102A4000D849284602F0FBFA514602F0C6FA214660
:102A500002F0F5FA0446D7F81C0120B9D7F828018E
:102A6000012800D10024D7F8200100B12C46CE491E
:102A7000894500D12C4614F0FF4F11D04046C7F8CD
:102A8000E880414602F0A3FA20F00040C74902F076
:102A9000F1FD22D2D7F8B80010F0FF4F03D01CE0B0
:102AA000D7F8E800EDE7C6B14846C7F81CB102F018
:102AB000D3FC04460E46284602F072FD0022BC4BB1
:102AC00002F020FC2246334602F0AAFB0022B94B5A
:102AD00002F018FC02F0A8FD04462046BDE8FC9F69
:102AE0002DE9F04FABB04FF0000AA94FCDF810A080
:102AF000C03FCDF814A0CDF818A00446D7F8201197
:102B0000022003297DD0002620AD07EB8600D0F8F7
:102B1000A80002F07DFC6FF01D0102F0CEFA45F82E
:102B20002600761C042EF0DB0FA808F0DDFF24A899
:102B300009F066F8964B24AA183B0FA92046279364
:102B400000F0F4F9064604F1180009F0C1F8820912
:102B50009548D7F83031834200DB034631462046A2
:102B6000FFF708FFBB4607F1B806D7F8EC1002F0F4
:102B700034FA30600BA808F0B7FF13A90BA809F0CE
:102B8000F9FD83480FAA3C300BA9064609F0E9FB82
:102B900031460BA809F0CAFB00210DF13C080DF1EC
:102BA0004C090DF1100E00221346104601EB410CAA
:102BB0000CEB000759F8276008EB8007401C7F6882
:102BC0000328C6FB0723F3DB900F40EA83004EF88F
:102BD0002100491C0329E6DBDBF820015F460028C1
:102BE0007DD05046CDF818A0404202F011FC6FF0A5
:102BF0001D09494602F061FA06F0F2FDD04656463C
:102C000000E074E0CDE9000A0698CDF808A0404243
:102C100002F0FEFB494602F050FA0CF0DBFB039099
:102C2000D7F8300141F2883190FBF1F04FF0804A43
:102C300002F0EEFB28902990069802F0E9FBDFF8FD
:102C400078B1594602F0FBF9299902F0F8F951469A
:102C500002F0F5F902F01EFC40000690DDF8A0A09D
:102C600002F0D6FB594602F0B8F9514602F0B5F928
:102C700002F010FC069002F0CBFB494602F01DFA70
:102C800006F0AEFDCDE907060996069802F0C0FBF6
:102C9000494602F012FA0CF09DFB0A901CAA694604
:102CA00020A809F0B7FB6A4607A91CA809F0B2FBE7
:102CB000D4F8BC00EA46002810DD00261E215AF890
:102CC000260045F8260002F0F8F902F0E3FB07EBD6
:102CD0008601761CC1F8A800042EEFDB00E00BE0B3
:102CE000D4F8BC004FF0FF3503280AD106E0C7F83E
:102CF00020012BB0BDE8F08F069875E700F067FE65
:102D0000F0B357F8A80F02F083FB4E46494602F095
:102D1000D4F91C90786802F07BFB314602F0CDF9C3
:102D20001D90B86802F074FB314602F0C6F91E909F
:102D3000F86802F06DFB314602F0BFF91F90B86FE2
:102D4000A83F0028D5D0D7F8B8002946A83702F008
:102D5000B4F906F045FD1E2102F0AFF902F09AFB2E
:102D6000C7E90008C7F808802946386902F0A5F9C4
:102D70000CF030FB1E2102F0A0F902F08BFB00E00A
:102D80001CE0F860D4F8C010A83F279844E0000089
:102D9000A00F00200000204100409C450000484357
:102DA000000048420000C84340420F000E2DB23DD3
:102DB000000079400088B340E10237472946D7F840
:102DC000B80002F07AF906F00BFDCDE90708CDF85E
:102DD00024802946D7F8B80002F06FF90CF0FAFA0F
:102DE0000A906A4607A920A809F014FB684609F072
:102DF000E1FB002556461E2156F8250002F05DF93C
:102E000002F048FB07EB85016D1CC1F8A800042DFA
:102E1000F1DBD4F8C010279809F008FFD7F820019B
:102E200000288FD0401E62E770B590F8B810664A4F
:102E3000CC064FF000034FF0030101D4C2E9481360
:102E4000B0F82041E40509D4048EE40503D5B0F8B8
:102E50007440E40502D4C2E948131AE0D2F83411F0
:102E600039B1D0E93013C91A4FF47A73B1FBF3F1D9
:102E700005E0D0F8B01044F62064A14202DBC2F8AD
:102E800030110AE0D2F82C512944C2F82C11A14289
:102E900001DA002070BDC2E94B31FFF721FEF8E7EF
:102EA00010B54FF49C71484802F027F8464C4FF09B
:102EB00080400021C4F8FC0044F8A80F4248A83024
:102EC00009F0B4FE4FF47A7060674FF07E50606492
:102ED00010BD3D49C1F8EC00002070473A49C1F8E7
:102EE0002801002070473849C1F83401002070479C
:102EF00004224FF41671AFF2CF0009F0A9BCAFF273
:102F0000D7000AF075B810B5FFF7CAFF2E490020A8
:102F1000C1F82801C1F83401AFF22B00BDE8104020
:102F200009F05ABDAFF237000AF094B82DE9FF4717
:102F30000C4625491546074699463C220C31224845
:102F400001F0B4FF204950225831A1F1100001F0E6
:102F5000ADFF1D4E95E8070006F13C031B4D83E8CD
:102F600007001ECC06F1980080E81E00D6F8240168
:102F7000401CC6F82401062802DD0620C6F82401FC
:102F8000C0F1060407F1A00818E006EB04116A4638
:102F90004846483109F0E5F904EB440006EB8001AE
:102FA0006A46404608F0CCFB074625F0004120F079
:102FB000004002F055FB00D23D46641C062CE4DBC9
:102FC00004B02846BDE8F087E00E002000247449D4
:102FD0001FB501461022684601F068FFF6489DE8DB
:102FE0000E0080E80E00F5499DF80C0081F8B00154
:102FF000002004B010BD1FB5EF490EC98DE80E00CA
:10300000EE49102291F8B0118DF80C10694601F0CC
:103010004DFF0020EDE72DE9F04F91B0002518217C
:10302000684601F06AFF0024182106A801F065FF38
:10303000E249A046C14691F8C00101287ED1D1F8ED
:10304000B8B1D1F8B4A10022C2EBC20000EB40013C
:10305000DA4800EB810E9EF850000F90002863D0F4
:1030600000215EE05EF82130DDE900676D1CD817B5
:103070000E939B197841CDE900300EEB8100EDB243
:1030800043690D93DDE9027CDE17DB1946EB0C0684
:10309000CDE90236836ADDE9047CDE170C93DB1987
:1030A00046EB0C06CDE90436C06B0E9BDDE9067CD1
:1030B00083FB0063360C46EA0346F6194CEB2343C8
:1030C000CDE906630D9BDDE9087C83FB00634FEAD5
:1030D000164646EA0346F6194CEB2343CDE908634E
:1030E0000C9BDDE90A7C83FB00634FEA164646EA47
:1030F0000346F6194CEB2343CDE90A6380FB0063DA
:103100004FEA164646EA034616EB080849EB234900
:103110000444584501DA834602E0504500DD82460A
:10312000491C0F9888429DDC521C052A8CDBA34861
:10313000AAEB0B01D0F8BC01814200E053E052DB66
:10314000A5FB0872E01700260F9006FB082005FB80
:1031500009000E9084FB0410090C41EA00410014A0
:10316000CDE90C0106A800EBC601D1E90002A0FBE5
:1031700005BC02FB05C2002100FB012C684600EBE8
:10318000C601D1E90002A0FB043802FB04820F99BA
:1031900000FB0120190C0CAA41EA00494FEA204A21
:1031A00092E80B0087EA010283EA000852EA08026B
:1031B00012D07A1A63EB0003BBEB09006CEB0A0C2C
:1031C0004FEA0C4141EA1041000401F01DFE7B4929
:1031D00001EB8601C1F8A401761C032EC2DB7748FF
:1031E000012180F8B01111B00020BDE8F08FF8B5D2
:1031F000724D0E460446D5E96D01091A052291FB70
:10320000F2F1301A90FBF1F0C0B28DF80000042802
:1032100001D92020F8BDC0EBC00000EB400005EB59
:10322000800191F85000052816D0421C81F85020EA
:103230009DF80010C1EBC10101EB410105EB8102DA
:1032400002EB8001CE63236842F820306068486159
:10325000A06888620020F8BD01F14003181F102209
:10326000194601F023FE9DF800001022C0EBC000BB
:1032700000EB400005EB8000011D01F017FE9DF8FA
:1032800000001022C0EBC00000EB400005EB800006
:1032900000F11801143001F009FE9DF80000102221
:1032A000C0EBC00000EB400005EB800000F12C01FA
:1032B000283001F0FBFD0420BAE730B585B00446A4
:1032C00003A9684608F0DAFC04A808F099FD022872
:1032D0002BD0D4F8E4000399401A384991F8B02172
:1032E00012B308B3D1F8A421009C80FB023215046C
:1032F00045EA134222440092D1F8A821019C80FBA8
:103300000232150445EA134222440192D1F8AC116D
:10331000029A80FB0110030443EA1140104402901A
:103320000321684609F07EFD0CE0606B032809D19B
:1033300008F0B6FC30B168460399FFF758FF08B9AA
:10334000FFF769FE05B0002030BD10B54FF4E27103
:103350001A4801F0D2FD19481949C0F8B4114FF4C8
:10336000AA01C0F8B8114FF4A021C0F8BC11012186
:1033700080F8C011002010BD1049C1F8B80100202C
:1033800070470E49C1F8B401002070470B49C1F8DD
:10339000BC010020704758B10849D1F8A42102604F
:1033A000D1F8A8214260D1F8AC11816000207047AB
:1033B0000520704724207047BC1100201810002001
:1033C0000000D8FF20B12D4981F8C00100207047CE
:1033D00024207047294B93F8B101002818D0D3E975
:1033E0006D10401A052190FBF1F00020C0EBC001E8
:1033F00001EB410103EB810191F8502022B1002142
:1034000000E0491C8A42FCDC401C0528EEDB002061
:103410007047082296211A4809F01ABA184809F08C
:10342000E7BD10B5FFF791FF4FF49A7310221549CD
:10343000154809F089FA20B9AFF2290009F0CCFA51
:1034400008B1012010BD0D49012081F8B101002013
:1034500010BD10B5094C94F8B101002808D00848F7
:1034600009F0C6FDAFF2550009F0F4FD08B10120E6
:1034700010BD002084F8B10110BD0000181000201C
:10348000BB320008F72F0008D12F0008002803DD09
:10349000FE490122C1E920020020704710B5B82181
:1034A000FA4801F02AFDF948F949C160F9498160FB
:1034B000F9490160F94941604FF0804141664FF49C
:1034C000FA61C167F649C0F89C10002010BD2DE9D3
:1034D000F041EE4C0E4607460025216802F0CAF87E
:1034E00011D33846616802F0BBF80CD3206901287B
:1034F00013D13046E16802F0BDF804D33046A1682C
:1035000002F0AEF809D2606F20B9E048A16D183022
:1035100009F08CFB0120C4E91D05D4E91E01884295
:1035200004DB606F012800D1E5656567BDE8F081C7
:1035300070B50C46054608F0E3FAD44A002110B9EC
:10354000D848854202DD1161516102E0106900280E
:1035500008D1506920445061B0F5FA7F02DD0120A6
:10356000C2E9040170BDF0B58DB00D4614460646A3
:10357000694609F0FFF809AA3146284608F0F1FE2D
:103580002946304608F0D2FE0021EC460DF1240E0B
:1035900000231A46184601EB41073D180EEB800642
:1035A0005CF825507668401CC5FB06320328F4DB26
:1035B000980F40EA820044F82100491C0329E7DB08
:1035C0000DB0F0BDB1490020C1F88C00704770B556
:1035D0000446806801F01CFF014601F0FEFC054630
:1035E000606801F015FF014601F0F7FC064620680F
:1035F00001F00EFF014601F0F0FC314601F095FCB0
:10360000294601F092FC0BF0CFFFBDE870406FF04F
:103610000F0101F052BD70B50E4600259B4C0121F3
:1036200030B101280CD0C4F8981044F88C5F29E020
:10363000C4F8A060C4E92965E4E92415A56070BD5B
:103640003046D4F8A01001F0C2FC20F00040D4F8BD
:103650009C1002F005F813D254F8945F31466D1CAB
:103660002560206901F061FC2061943C312DE6DD8C
:10367000022144F8901F8C4901F0E1FCA06170BD6B
:1036800044F8905F656070BD2DE9FF4F8BB0002658
:103690007E4C0546039604960596D4F8880093461A
:1036A000374600287ED008F00BFB10B103A808F0C5
:1036B000D7FAD4F88000A146002819DD01204C4635
:1036C000C9F8840008F0FCFA48B103A808F000FB30
:1036D0008009B0F5C87F02D2D4F8800004E0D4F8A5
:1036E0008000401BC4F88000002801DCC4F884700E
:1036F00008F018FD002855D000240E9850F824003A
:1037000001F086FE82465BF8240001F081FE6FF036
:103710000F08414601F0D1FC514601F05EFC4146E4
:1037200001F0CBFC314601F000FC641C0646032C82
:10373000E3DB5846FFF74BFF01460690304601F0A9
:103740007EFC4FF07E58DFF864A1404501DD404625
:1037500002E0504500D9504605F030FD8346D9F8C7
:103760008C004E4670B13168069801F079FF09D29D
:103770007168069801F07EFF04D25946D6F8900091
:10378000FFF749FF684608F025FB40490C22AC31A1
:10379000684601F0BDFB18B9D6F8980001286CD135
:1037A0003A4800E0C6E09DE80E00AC3080E80E002C
:1037B000009818B9019808B9029858B36846FFF7FD
:1037C00006FF044610F0FF4F57D0DFF8E490204684
:1037D000494601F0FCFB014601F0FFFB0BF0E4FE63
:1037E00070604946204601F0A0FB014601F0F5FB60
:1037F0000BF0DAFE3060029801F00AFE6FF00F0164
:1038000001F05BFC214601F01AFC044640451FDD37
:10381000444620E02048306020487060D6F8980088
:10382000012804D01B48B0601948F06025E0D6F8A4
:103830009C80D6F8A8404146204601F0C8FBB06005
:103840004146204601F071FBC6F89870F06014E024
:10385000544500D95446204605F0B0FCD6F89C10DB
:1038600001F0B5FBB060204605F0A8FCD6F89C102E
:1038700001F05BFBC6F88C70F060DFF81080F16D32
:1038800008F1580801BB0120002413E0DC110020DE
:103890000000B4420000B4C2000070420000F041D9
:1038A0007B142E3E00401C4600004842000080BFB2
:1038B00000002041F06506EB04104146183008F086
:1038C00055F9641C042CF6DB434907AA0C460C98F6
:1038D000FFF749FE21460C9808F028FD03A808F0E0
:1038E000F7F901F09EFD6FF0050101F0E6FB2946B6
:1038F000FFF71EFE59460698FFF7E9FDD6E91E01BF
:10390000884201DA2844B067706F90B9306E28445D
:103910003066B0F57A7F0CDD2F4930223C39A1F1B9
:103920001000376601F0C2FA2B4841461C3808F0F7
:103930001DF9706F0FB0BDE8F08F70B588B0044608
:1039400004A808F05DF9D4E93001451A684608F08A
:10395000CBF8064604AB04F1A00269462846FFF7FF
:1039600093FE09F075F908B0304670BD04224FF49B
:103970009671AFF2390008F06BBFAFF2410009F069
:1039800037BB10B5FFF78AFD00280DD11248002182
:103990006438C0F88C100121C0F88810AFF23300F1
:1039A000BDE8104009F018B810BD10B5AFF27500B1
:1039B00009F01EFBAFF27D00BDE8104009F018BB16
:1039C000054901206439C1F88C0000207047024885
:1039D0006438406F70470000401200202DE9F0432A
:1039E000044699B01D4691460E46806801F010FDD0
:1039F000014601F0F2FA8046606801F009FD0146D7
:103A000001F0EBFA0746206801F002FD014601F0E3
:103A1000E4FA394601F089FA414601F086FA0BF0E2
:103A2000C3FD074620F000404FF08D4101F022FE1B
:103A30007ED2306801F0ECFC6FF01D08414601F0C9
:103A40003CFB0490706801F0E3FC414601F035FB5B
:103A50000590B06801F0DCFC414601F02EFB0690B9
:103A6000F06801F0D5FC414601F027FB00260C96DA
:103A70000790206801F0CCFC394601F0E0FA0D9087
:103A8000606801F0C5FC394601F0D9FA0E90A068D3
:103A900001F0BEFC394601F0D2FA0F9010AA0CA931
:103AA00004A808F0B7FC14A904A808F04BFC6A4667
:103AB00014A910A808F0AEFC0199084601F08DFA8F
:103AC00002990446084601F088FA214601F02DFAD1
:103AD000FE49884201DAFE4C0BE0FE49884201DAD9
:103AE000FD4C06E0FD49884202DA4FF07A5400E0CE
:103AF000FB4C484601F08CFCFA4901F0A0FA214643
:103B000001F06BFA044608962146029801F065FA26
:103B100009900198214680F0004001F05EFACDE95D
:103B20000A066A4604A908A808F074FC6A4600E080
:103B300025E004A9104608F0E0FB684608F0F1FC17
:103B40001E21009801F0B9FA01F0A4FC28601E21A2
:103B5000019801F0B2FA01F09DFC68601E21029804
:103B600001F0ABFA01F096FCA8601E21039801F069
:103B7000A4FA01F08FFCE86019B0BDE8F08396E884
:103B80000F0085E80F00F7E72DE9F05F05460C46CA
:103B9000806801F03DFC014601F01FFA07466868A5
:103BA00001F036FC014601F018FA0646286801F0DB
:103BB0002FFC014601F011FA314601F0B6F9394601
:103BC00001F0B3F90BF0F0FC4FF07E5900270646E8
:103BD0004FF08048484505DCC4E90087A760E760EE
:103BE000BDE8F09FA86801F013FC314601F027FA08
:103BF00082460146484601F0EAF94FF40006B04219
:103C000000DA00204FF0FF3101F057FA0BF0CCFC46
:103C100083464946504601F088F9B04200DA002058
:103C20004FF0FF3101F049FA0BF0BEFC82466868A4
:103C300001F0EEFB014601F0D0F90646286801F0DC
:103C4000E7FB014601F0C9F9314601F06EF90BF0CE
:103C5000ABFC06464845BFDD1E21504601F02DFA5B
:103C600001F018FC2060686801F0D2FB314601F0D9
:103C7000E6F9594601F0B1F91E2101F01EFA01F0F2
:103C800009FC6060286801F0C3FB314601F0D7F9F8
:103C9000594601F0A2F9944901F09FF901F0FAFBAD
:103CA000C4E902079CE72DE9F04105460C46C068CF
:103CB00001F0AEFB014601F090F98046A86801F0E2
:103CC000A7FB014601F089F90746686801F0A0FBEF
:103CD000014601F082F90646286801F099FB014689
:103CE00001F07BF9314601F020F9394601F01DF968
:103CF000414601F01AF9B0F5000F06DA4FF08040A6
:103D0000206000206060A0602DE00BF04DFC0146BB
:103D10004FF07E5001F093F91E2101F0CEF90646D6
:103D2000286801F075FB314601F057F901F0B2FB4C
:103D30002060686801F06CFB314601F04EF901F03B
:103D4000A9FB6060A86801F063FB314601F045F90A
:103D500001F0A0FBA060E86801F05AFB314601F0D9
:103D60003CF901F097FBE060BDE8F08170B50446D6
:103D700090F8300088B0400676D5A069002801DBB5
:103D8000014600E041424FF480320026574D9142F7
:103D90000BDAE169002900DA4942914205DA216A29
:103DA000002900DA4942914260DB002800DA4042F3
:103DB0004FF4C80188420BDCE069002800DA404279
:103DC000884205DC206A002800DA4042884201DD92
:103DD000032000E00220A863696BA06A814219D029
:103DE0006863A06A01F014FB414901F028F91D2124
:103DF00001F063F901F0D4FB3E4A3F4B01F010FAA9
:103E0000082201F0EEFA00223C4B01F07BFA01F0AF
:103E10008FFB28630496296BA06908F048FA059087
:103E2000296BE06908F043FA0690296B206A08F0D4
:103E30003EFA07906A4604A92C4808F092FA0098C6
:103E40002A4A8001009001986946800101900298F9
:103E500080010290039880010390104608F03BFA1D
:103E600022490846FFF71FFF08B070BDAE63FBE7AD
:103E70002DE9F0430446D0F820018FB041067CD5EF
:103E80001A4DD4F810111E4B2A68891AD4F82C2127
:103E90005A438A4201DA032100E00221A963810525
:103EA00004F58870804601D51049D4E0002104A8AB
:103EB00007F0E4FE0D490C223C3104A801F028F87B
:103EC00008BBD4F82801A96D88421BE017B7513907
:103ED000A69BC43B0AD7233C8FC2753DCDCC4C3E3C
:103EE000CDCCCC3E0014CD47000080CE94120020F3
:103EF00000247449112D4454FB2109400080664080
:103F000071981C007ED0208807AB80B204AA616A39
:103F100007F070FC099801F07BFA014601F05DF8AA
:103F20000746089801F074FA014601F056F8064673
:103F3000079801F06DFA014601F04FF8314600F0A4
:103F4000F4FF394600F0F1FF0BF02EFB0646E8497E
:103F500001F043F8E74901F072F86FF00F0101F04A
:103F6000ACF80746D4F8280101F052FA394601F0BE
:103F700034F8E14901F063F800E06EE04FF0FF3102
:103F800001F09BF8074605F02BFC814638460BF004
:103F900021FA07464FF08040864204DAA8640020E8
:103FA000E864286533E01E21484601F086F801F0F8
:103FB00071FAA864079801F02BFA8146CF49384678
:103FC00001F00BF80746494601F007F8314601F0C9
:103FD00036F801F05FFAE864089801F019FA014632
:103FE000384600F0FAFF314601F029F801F052FAA4
:103FF0002865099801F00CFA0146384600F0EDFFFB
:10400000314600E00EE001F01AF801F043FA04AB8B
:10401000686593E8070005F13C0383E80700D4F8DE
:104020002801A8656A46B649404608F09AF9B4489E
:104030000AAA14306946044608F093F9214640461E
:1040400008F074F9AE486A460AA9483808F089F9B8
:10405000AB4968464839FFF726FE0FB08DE51FB51E
:104060000446A7486946483808F060F9A44A6946FA
:10407000283A204608F075F9A1491DCC383981E865
:104080001D001FBD2DE9F0479D4E0446483E90F8A7
:10409000740006F15C0A06F12008012500F05001C9
:1040A000103692B004F5887904F15C07402906D0F7
:1040B00094F8200100F0500040280DD01EE0314659
:1040C0003846FFF761FDB4F82001C0050CD5514614
:1040D000484608F02BF907E05146484608F026F913
:1040E000B4F87400C00509D585486946483808F019
:1040F0001DF942466946304608F033F9B4F820010C
:10410000C005204602D5FFF7B3FE01E0FFF72EFE03
:104110007B4932464839404608F023F994F8740048
:10412000400671D5208EB4F820110843C00578D51B
:104130000FAA3946304608F0F4FAD4E9172080FB7C
:104140000001C2FB0201626E6D4FC2FB0201483FDB
:104150004FF08042801A71F1020014DB04A807F0CE
:10416000FFFDDDE9042080FB0001C2FB0201069A8D
:10417000C2FB02014FF08042801A71F1020002DBA3
:104180000420B8630BE0B86B042808D041F28832F1
:10419000022806D0032804D001283AD009E00025DF
:1041A00007E0E16E91FBF2F5012D00DA012503280D
:1041B00000D0AD0053480024454310980794800276
:1041C000294608F074F808900F982946404280026A
:1041D00008F06DF8CDE909040BAA314607A808F0EC
:1041E000C0F832460BA9104608F075F8314608466B
:1041F000FFF759FD42486946483808F097F84246AB
:104200006946304608F0ADF812B00020BDE8F087EE
:1042100007E0E06E90FBF2F0012800DA0120450093
:10422000C7E7334619463846E26EFFF7D7FBE1E7AA
:1042300070B50446008EC105D4F8200107D4B4F847
:104240007410C90503D4C10501D4002070BDC0F3AA
:104250000120032808D02046FFF714FF2848A16B4F
:10426000383808F0B3FEF0E704F5887124482EC909
:10427000383880E82E00F1E7234808F0B9BE20481E
:1042800010B56C21483800F038FE1D484FF08041D1
:104290004838016101600162C163C165002010BD41
:1042A0001D4810B5082219A1006800F031FE08B1C0
:1042B000322010BD1322BDE81040C821124808F07A
:1042C000C7BA10B5FFF7DBFF002805D1AFF22F000A
:1042D000BDE8104008F080BB10BD10B50A4808F0DA
:1042E00087FEAFF24300BDE8104008F0B3BE000007
:1042F000DB0F49400000344300247449000080CEA5
:10430000DC120020A69BC40031420008654D504CD1
:1043100020352E31000000001801002010B5FE4BA2
:10432000FE4AFF4C002002EB8001401CC0B2CC6270
:104330000B620328F7D310BD70B5F84E002506EBCD
:104340008504D4F8B410206A01F08AF902D2D4F8B6
:10435000B4002062D4F8B410E06A01F08BF902D204
:10436000D4F8B400E0626D1CEDB2032DE7D370BD4C
:104370003EB50B46B0F8481009040091B0F84A1059
:10438000009A09040191B0F84C1009040291E34924
:104390004C6E121B0092019A8C6E121B0192029AB3
:1043A000C96E511A0291816EB0F844006A4680B21B
:1043B00007F020FA3EBDF0B5D84F00242546D7F8C7
:1043C00094208DB02E46012A01D1C7F8946009A926
:1043D000FFF7CEFF05A807F013FC059909986022A6
:1043E000A0EBA130099006990A98A0EBA1300A90A1
:1043F00007990B98A0EBA130CA490B90081F00F059
:1044000055FD0DF1240CC7489CE80E00143080E8DF
:104410000E00684607F0A4FCC24960226C31081FF8
:1044200000F044FDBF489DE80E00803080E80E009B
:1044300000210922D7F82C04401CC7F82C0401EBFA
:10444000410007EB8000DDF800C0D0F84C33491C78
:1044500093FBF2F31C44D0F85033092993FBF2F399
:104460001D44D0F8543393FBF2F31E44D0F8B83314
:1044700093FBF2F363440093D0F8BC33DDF804C03F
:1044800093FBF2F363440193D0F8C003029B90FBCB
:10449000F2F018440290CDDB002C00DA6442002DCB
:1044A00000DA6D42002E00DA76420098002800DA29
:1044B000404200900198002800DA404201900298A2
:1044C000002800DA40420290009900208C4200DA75
:1044D000012001998D4200DA401C02998E4200DAD7
:1044E000401CD7F82C14092900DB401C04280DD1EE
:1044F00097F8240402280BD901468848D7F82824C5
:10450000643008F00BFB012008F002FB0DB0F0BD99
:1045100008F0C6FAFAE72DE9F047804D0027DFF8EA
:10452000088285F82474DFF80492DFF804A20646B6
:104530003C46C5F8287405EB8400E96BD0F8CC0044
:1045400001F098F818D8D5E914010022534600F07C
:1045500061FE21F0004142464B4601F035F80BD296
:1045600095F82404401C85F824040120D5F828146B
:10457000A0400143C5F82814641CE4B2032CDAD32C
:1045800095F8240480B3002406EBC400D0E9002190
:10459000104600F0CDFF05EB8401641CE4B24866D0
:1045A000032CF1D3C5F82C74A868042802DA95F816
:1045B0002404A86095F82404032815D15D49E8680F
:1045C000884211DCD5E914010022534600F022FE96
:1045D00021F0004142464B4600F0F6FF04D2A868A5
:1045E000032801D10420A86053492869884215DABC
:1045F0005249E868884211DCD5E91401002253468B
:1046000000F008FE21F000414D4A4E4B00F0DCFF67
:1046100004D2A868042801D10520A860BDE8F0876D
:104620002DE9F0413D4C0746D4F8A404012803D0FD
:1046300000252846BDE8F08143494FF07E52A1F1A4
:10464000E80013460646FBF7A5FE344A30465032D2
:1046500002F5AC71FCF7AAF80500EAD06068401CCE
:104660006060D4E9140100F063FFB96E07F01FFE2B
:1046700000F0CEFE6FF00F0100F01FFD00F090FF84
:10468000C4E91401D4E96A0100F052FFA065D4E93D
:104690006C0100F04DFFE065D4E96E0100F048FFC9
:1046A0002066D4E968010022284B00F0A5FFC0D2A3
:1046B000274A314613460846FBF76CFEB9E72DE959
:1046C000F04104460025D4E903010126022700F049
:1046D000D1FF10D26169E06800F0CCFF0BD22564F5
:1046E000D4E9040100F0C6FF02D8C4E91167A1E7CC
:1046F000C4E911769EE7D4E9031000F0BBFF2FD286
:10470000D4E9040100F0B6FF2AD226646169E068AA
:1047100000F0B0FF21D81DE000401CC600130020AF
:1047200000401C46501600209A9999999999B93FD2
:104730000000F03FAE47E13D00007A43BC74933C7B
:104740009CC420B07268913FC81400200070A7403C
:10475000CDCCCC3EC4E911576CE7C4E9117569E7CB
:104760002764D4E9030100F085FF02D8C4E911569B
:1047700060E7C4E911655DE700221146C26440F8B4
:10478000212000EB8103491C5A620329F7DB012138
:10479000C0E91D12704730B504461420A0650A20F8
:1047A0002066002584F870502046FFF7E5FF656518
:1047B00030BD2DE9F04387B06946FFF7D9FD0025EC
:1047C0002E462C46E8466FF00F0903AF58F8240038
:1047D00000F01EFE494600F070FC47F82400014638
:1047E00000F0FBFB00F0DCFE2A46334600F071FCD3
:1047F000641C05460E46032CE8DB0AF0AFFEDFF82A
:10480000B48505460E460024B94659F8240000F048
:10481000C7FE2A46334600F075FD00F005FF08EBA1
:104820008407D7F8301400F080FB641CC7F830040C
:10483000032CEADBD8F88414491CC8F8841401213D
:10484000C8F8AC1407B0BDE8F0832DE9F04186B09C
:10485000054604AA03A9684607F034FC002637463B
:104860003446E84658F82400014600F0B6FB00F054
:1048700097FE32463B4600F02CFC641C06460F4671
:10488000032CEFDB0AF06AFE06460F46002458F8B8
:10489000240000F085FE32463B4600F033FD00F078
:1048A000C3FE55F8241000F040FB45F82400641CBA
:1048B000032CECDB686D401C68650120E86706B0DE
:1048C000B8E62DE9F05F0025DFF8ECA404464FF0D0
:1048D0007E5BA846206D00F09BFD014654F8250044
:1048E00000F0ADFB04EB85060746B169514501D3E5
:1048F00081F00041574501D2384601E087F0004081
:1049000000F065FBB7613063D4F83C9059464846E7
:1049100000F05DFB716A00F060FB394600F005FBBA
:10492000494600F08CFB7062504501D380F0004096
:10493000F06044F825806D1C032DCBDB2046FFF78B
:10494000BEFEE06CB0F57A7F01DA401CE06494F8BA
:104950007010042603270125206C4FF0050A062954
:104960000AD2DFE801F0030B142A4E326567C4F85F
:104970004C80A56784F87050BDE8F09FE06F012877
:10498000FAD1022084F87000C4F87880F4E704EBD0
:104990008009616ED9F80C0000F06CFE03D884F831
:1049A000706040462AE0A16ED9F80C0000F058FE75
:1049B0002ED81BE06567A567DEE704EB8000616E1B
:1049C000C06800F057FED7D8E9E704EB8009A16E74
:1049D000D9F80C0000F044FE08D9F849D9F83000A5
:1049E000884206D9216EE06C8842C5DB84F870707D
:1049F000E0E784F870604046C4F84C806067A067C8
:104A0000BAE704EB8000E16EC06800F029FEB3D87D
:104A100084F870A0C4F84C80CCE710B5044600F0D0
:104A2000F7FCE74900F0D9FAE64900F008FB4FF03F
:104A3000FF3100F042FB00F0B3FD04F083FE1E22C4
:104A400000F0CFFC00F074FDDA49C1E9204010BD50
:104A50002DE9F04F91B0002504460095019502958F
:104A6000C06E44F62061D34E884206DBD6F8801033
:104A7000884210D0FFF7D1FF0DE0D6F8482310444C
:104A8000C6F8480388427DDBE16E814201D0FFF722
:104A9000C4FFC6F84853206BC6F8B0042046FFF7A1
:104AA00088FE06F5906003C8814204DBC648FFF724
:104AB00008FFC6F88454D6F8A804012802D120467D
:104AC000FFF779FCD6F8A40401285BD1684607F00B
:104AD00065F90299084600F080FA01998046084677
:104AE00000F07BFA00990746084600F076FA39464E
:104AF00000F01BFA414600F018FA0AF055FD0E21AD
:104B0000F06000F0DAFA00F0C5FCADF81C00AF4927
:104B1000A946ADF81E50ADF8205007A80991FDF741
:104B2000E1FB03A807F076F9316F039807F0BFFBAC
:104B30000546716F049807F0BAFB0544B16F0598FC
:104B400007F0B5FB0544F16F069807F0B0FB05EBE5
:104B5000000803AF002597E80F0006F170070DF17C
:104B6000340A87E80F000DF1280B04EB4507A16E0E
:104B700037F8480F000407F09AFB4AF8250000F0C8
:104B800047FC00E098E06FF00F0100F096FA06EBAA
:104B900085014861388801044BF825106D1CEDB281
:104BA000032DE2D389480AA9E8380746FBF785FCBC
:104BB000D6F82813306881427EDBD4F8E40000F098
:104BC00027FC6FF00F0100F078FAD6F8D8100546F0
:104BD00011F0FF4F06D0284600F0F9F920F0004010
:104BE000C6F8DC00C6F8D850B068062811D2DFE855
:104BF00000F0030303030A1A7548B0634FF07E50B8
:104C0000F063C82004E07348B0637348F063642025
:104C10003064208EC00509980BD4FDF777FA00F0B8
:104C200005FC68490AE06D48B0636D48F0633220C6
:104C3000EEE7FDF7CCF900F0F9FB6A4900F0FFF967
:104C400030619821099800F058F9D6F88410414550
:104C50003BDA3069B0F5000F37DBB16B00F000FDD7
:104C600033D2316C7068884205DA2046FFF7D8FCF1
:104C7000002852D00BE05C49D6F8B000884206DB31
:104C80002046FFF7CDFC002847D0C6F8049000204E
:104C900006EB8001401C4A69C0B2C1F8B420032869
:104CA000F6D3FFF749FB002406EB8405E96A286A7E
:104CB00000F08DF9641C00E02EE0E4B2C5F8CC00F1
:104CC000032CF1D34948FFF726FC002406EB8405AA
:104CD0006969D5F8980000F07AF9641C20F000406A
:104CE000E4B2C5F8A400032CF0D3F6E9290100F0E2
:104CF0001CF9B16800F019F9F0600020A43E06EB41
:104D00008001401C4A69C0B2C1F898200328F6D33C
:104D1000E821384600F0F1F8002011B0BDE8F08F2E
:104D200010B54FF49761234800F0E7F8214C0A20B2
:104D3000206040072067FFF7F1FA2348FFF72BFDBB
:104D40002068C4F880044FF08440C4F86C041E202E
:104D5000C4F88C042648C4F898042648C4F894047F
:104D60002548C4F89C041920FDF769FD002010BDFA
:104D7000012240F25231AFF2273007F069BDAFF2A5
:104D80002F3008F035B910B5FFF7CAFF002805D15C
:104D9000AFF22300BDE8104007F01EBE10BD10B5F5
:104DA000AFF2533008F024F9AFF23B00BDE81040F9
:104DB00008F050B90013002000008080CDCC4CBD1D
:104DC000368D27400024744930170020B01500208C
:104DD0000080BB44000096439A99993F00007042BE
:104DE0003333B33F0050C347CDCC4C3DA814002013
:104DF000CDCCCC3ECDCC4C3F3333333F01488068E3
:104E000070470000001300202DE9F0410024061B2C
:104E1000254671F1000605DA01240027D0EB0700D2
:104E200067EB0101161E73F1000605DA0027D2EBCD
:104E30000702012567EB030300F03CFC86460E46A3
:104E400017469C46AC4204D00025D0EB050E65EB1E
:104E5000010624B10020D2EB000760EB030C704682
:104E600031463A466346BDE8F081202A04DB203A09
:104E700000FA02F1002070479140C2F1200320FAAD
:104E800003F3194390407047202A06DBCB17203AE2
:104E900041FA02F043EAE07306E041FA02F3D0403F
:104EA000C2F12002914008431946704710B5431AD9
:104EB000934209D28318881803E010F8011D03F803
:104EC000011D521EF9D210BD40EA01039B0703D019
:104ED00009E008C9121F08C0042AFAD203E011F839
:104EE000013B00F8013B521EF9D210BDD2B201E0E5
:104EF00000F8012B491EFBD270470022F6E710B5DF
:104F000013460A4604461946FFF7F0FF204610BD37
:104F100030B504460020034600E05B1C934203D2F8
:104F2000E05CCD5C401BF8D030BDF0B480EA0102FB
:104F3000D40F4200B2EB410F02D20246084611469E
:104F40004A0042D0C30DDDB2C1F3C752AD1A202DC5
:104F500035DAC1F3160141F4000204B15242C5F141
:104F6000200602FA06F12A411044B3EBD05F23D0A9
:104F7000C4B1012DA0EBC35009DCF0BC4FF00042DE
:104F800002EAC352DBB200F5000000F0DDBB4000D6
:104F900000F1807000EBC350A0F1807040EAD17046
:104FA000490009E0490841EAC071A0EBC35000F58F
:104FB0000000400800EBC350F0BC00F0BCBB6142F5
:104FC000012202EB4101001BF6E7F0BC704781F0C3
:104FD0000041AAE780F00040A7E780EA010210B58F
:104FE00002F00043400022D04A001FD0010E01EB26
:104FF0001261C0F35600C2F3560240F4000042F4BE
:105000000002A0FB022000047F39140400D0401CE1
:1050100050EA124001D44000491EC2B20C0604EB13
:10502000D010401C4008802A02D003E0002010BDB0
:1050300020F00100002900DA0020184310BD30B430
:1050400080EA010202F0004530F0004221F0004009
:1050500013D090B1C30DD40DC2F31601C0F31600E6
:10506000E41A41F4000140F400027D34914201D37E
:10507000641C00E04900002C02DA30BC00207047BC
:105080004FF400000023914201D3891A03434008E2
:105090004FEA4101F7D151B1914202D14FF00041A5
:1050A00005E002D24FF0010101E06FF0010103EBD6
:1050B000C450284430BC00F03EBB420005D0C0F3D1
:1050C000C7525242914201DC0020704700EBC150B0
:1050D00070472DE9FE4F804681EA0300C00F0C4661
:1050E000009021F0004123F00045B8EB0200A941F7
:1050F00005D24046214690461C460B46024623F008
:105100000040104347D0270DC7F30A00C3F30A51EC
:105110000290401A019040286BDAC3F3130040F468
:10512000801B0098924620B10023D2EB030A63EB68
:105130000B0B01985946C0F140025046FFF795FE0F
:1051400006460D4650465946019AFFF79DFE10EB64
:1051500008006141002487EA115284EAE7731A4388
:1051600040D0009A62B3019A012A4FEA075215DC37
:10517000001B61EB02014FF0004202EA0752CDE949
:105180000042001C41F5801132462B4600F066FBC0
:1051900003B0BDE8F08F40462146F9E7001B61EB04
:1051A0000201001C41F5801300185B412018A2F594
:1051B000001747EB030140EAD570B6196D4111E0C5
:1051C0006D084FEA360645EAC0754FEA0752001BE4
:1051D00061EB0201001C41F5801149084FEA3000E3
:1051E0000019514132462B4603B0BDE8F04F00F0A4
:1051F00026BB0098012240000023D0EB020263EBA3
:10520000E073009821464FEAE074B8EB000061EBD0
:105210000401E9E783F000435BE781F0004158E7D0
:105220002DE9FE4F81EA030404F0004421F000411F
:1052300000944FF0000B23F0004350EA01045ED0CD
:1052400052EA03045BD0C3F30A54C1F30A552C4459
:10525000A4F2F3340194A0FB0254C1F3130141F40E
:105260008011C3F3130343F4801301FB024400FBDA
:10527000034E840A970A44EA815447EA8357A4FB01
:10528000076802958D0A05FB07854FEA932C04FBFE
:105290000C542705029D4FEA065847EA1637B5EB2E
:1052A00008056EEB070C870E920E47EA811742EA5B
:1052B0008312A7FB0201B6EB0B0164EB00042B0D7C
:1052C00043EA0C335E1844EB1C50DA465146E7FBC8
:1052D0000201C5F313044FEA0B3343EA14534FEAB8
:1052E0000432019C43EA0603A4F10C040294009CDE
:1052F000CDE900B400F0B2FA03B0BDE8F08F0020B1
:105300000146F9E72DE9F04D81EA030404F0004B72
:1053100021F0004514464FF0000A23F0004150EA06
:10532000050220D054EA01021DD0C5F30A570246F7
:10533000C5F31303C1F31300C1F30A5640F48015FB
:1053400043F48013A7EB0608101BD64608F2FD387D
:1053500073EB050002D308F1010801E092185B41EC
:10536000B8F1000F03DA00200146BDE8F08D0020FF
:105370004FF48011064684460EE0171B73EB0507B9
:1053800005D3121B63EB050306434CEA010C4908E5
:105390004FEA300092185B4150EA0107EDD152EA22
:1053A000030012D082EA040083EA0501084305D015
:1053B000101BAB4106D20122002306E000224FF071
:1053C000004302E06FF0010253101AEB06004CEBB1
:1053D000085110EB0A0041EB0B01BDE8F04D00F065
:1053E0002EBA70B521F0004303430CD0C1F30A5527
:1053F0000024D5EB040564EB0403D617AD1AB341C2
:1054000002DB0020014670BD201841EB025170BD47
:10541000C10F80EAE0700844CA079623002100F01B
:1054200093B996230022114600F08EB9F0B4CA1742
:10543000CB0F50405140C61841F100054FEAC372EE
:10544000314628004FF0960303D0B623F0BC00F09D
:105450007BB930460021F9E70EB5C10F80EAE07054
:105460000844CA07002140F233438DE80E000A4683
:105470000B4600F0F3F903B000BD0EB540F2334126
:1054800002910021CDE900110A460B4600F0E6F931
:1054900003B000BD00F0004220F00040C10DC0F399
:1054A000160040F400007F2901DA00207047962999
:1054B00003DCC1F19601C84001E096398840002A1A
:1054C000F4D04042704720F00040C10DC0F31600F8
:1054D00040F400007F2901DA00207047962903DCA0
:1054E000C1F19601C840704796398840704710B5A1
:1054F00000F0004420F00040C20DC0F3160040F45C
:1055000000007F2A02DA0020014610BD0021962A01
:1055100003DCC2F19602D04002E0963AFFF7A5FC08
:10552000002CF2D00023D0EB030063EB010110BD8F
:1055300070B5C1F30A5201F000450024C1F3130114
:1055400040F2FF3341F480119A4201DA002070BD2D
:1055500040F233439A42A2F2334203DC524200F05B
:10556000DAF800E090402C43F1D0404270BDC1F326
:105570000A5210B5C1F3130140F2FF3341F4801118
:105580009A4201DA002010BD40F233439A42A2F25F
:10559000334203DC524200F0BEF810BD904010BD13
:1055A00000F0004230F000400AD0C10D01F56071FA
:1055B000C0F3160042EA0151C20840071143704788
:1055C000002001467047000030B5041E71F1000450
:1055D00004DB4FF00044404264EB0101141E73F100
:1055E000000405DB1C464FF00043524263EB04030A
:1055F0008B4208BF824230BD30B5041E71F10004F9
:1056000004DB4FF00044404264EB0101141E73F1CF
:10561000000405DB1C464FF00043524263EB0403D9
:10562000994208BF904230BD01F0004330B421F0F0
:10563000004150EA010206D00A0DA2F56072C1F3E2
:105640001301002A02DC30BC00207047440F44EAFA
:10565000C104C100E01830BC00EBC25000F06BB8D0
:10566000002801DBC0F10040002901DBC1F100414D
:1056700081427047002801DBC0F10040002901DBB6
:10568000C1F100418842704730B50B460146002009
:105690002022012409E021FA02F59D4205D303FAF4
:1056A00002F5491B04FA02F52844151EA2F1010275
:1056B000F1DC30BD2DE9F05F0546002092469B46A7
:1056C00088460646814640241BE028464146474618
:1056D000224600F020F853465A46C01A914110D392
:1056E000114618462246FFF7C0FB2D1A67EB01084A
:1056F0004F46224601200021FFF7B7FB17EB0009B8
:105700004E41201EA4F10104DFDC484631462A4602
:105710004346BDE8F09F202A04DB203A21FA02F03C
:105720000021704721FA02F3D040C2F120029140DB
:105730000843194670470029A8BF7047401C49001C
:1057400008BF20F00100704710B4B0FA80FC00FAE6
:105750000CF050EA010404BF10BC704749B1CCF111
:10576000200421FA04F411FA0CF118BF012121439D
:105770000843A3EB0C01CB1D4FEA00614FEA102058
:1057800042BF002010BC704700EBC35010440029FA
:10579000A4BF10BC7047401C490008BF20F00100A6
:1057A00010BC7047F0B4002802DCF0BC0020704749
:1057B000C0F3C751C0F3160040F40000CA0701D17E
:1057C0004000491E3F2202EB6105002211464FF4C2
:1057D000000626FA01F31344D418844201D8001BB2
:1057E0001A464000491C1729F3DD5100814202D2BC
:1057F0004FF0FF3100E0002102EBC550F0BCFFF795
:105800009ABF10B541000CD0C0F3C751962908DCEF
:105810007E2909DC06DB410204D000F0004040F0A4
:105820007E5010BD002010BDC1F19604C4F12001CE
:1058300000FA01F1E040FFF77EFFA04010BD10B577
:10584000141E73F1000408DA401C41F100019218A3
:105850005B411A4301D120F0010010BD2DE9F04D4C
:1058600092469B4611B1B1FA81F202E0B0FA80F2A1
:1058700020329046FFF7F9FA04460F4640EA0A0044
:1058800041EA0B0153465A46084313D0114653EAE6
:10589000010019D0C8F140025046FFF73CFF054611
:1058A0000E46504659464246FFF7DFFA084305D0F8
:1058B000012004E020463946BDE8F08D0020054374
:1058C00046EAE0762C4337430A986305E40AA0EBE6
:1058D00008000022FD0A44EA47540A3002D500209D
:1058E0000146E9E7010510196941DDE9084500199C
:1058F0006941BDE8F04DA2E72DE9F04D00231A46BD
:105900001B1A8A4103DB00200146BDE8F08DC1F37C
:105910000A52C1F3130141F480154FF0000BD10777
:1059200002D100186D41521E0027044640F2FF11BB
:10593000384601EB620A3E468046024600204FF49C
:105940008011FFF7E8FEC2197141BB1846EB010058
:10595000B4EB030C75EB000C04D3E41A65EB000503
:1059600017460E46241908F101006D41804634287F
:10597000E3DDF91946EB0600091BA84103D24FF0FD
:10598000FF32134601E0002213461BEB070046EBF3
:105990000A51BDE8F04DFFF752BFC1F30A52C1F3FF
:1059A000130140F2FF3341F480119A4202DA0020E1
:1059B0000146704740F233439A42A2F2334202DC7E
:1059C0005242FFF7A8BEFFF750BA0000064C074D41
:1059D00006E0E06840F0010394E8070098471034BF
:1059E000AC42F6D3FAF786FB2807010848070108FE
:1059F00070B58C1810F8015B15F0070301D110F891
:105A0000013B2A1106D110F8012B03E010F8016BBD
:105A100001F8016B5B1EF9D12B0705D40023521E40
:105A20000DD401F8013BFAE710F8013BCB1A921CA8
:105A300003E013F8015B01F8015B521EF9D5A142A6
:105A4000D8D3002070BD00BFFEE7000000210F4A40
:105A50001160516091609181D1811182002006E036
:105A600000220A49143141F82020411CC8B2042800
:105A7000F6DB002006E000220449243141F8202012
:105A8000411CC8B20228F6DB704700004801002024
:105A90000C48C069B0F57F7F13D800200A49086020
:105AA0000A490860074880680949086000200949D8
:105AB000088009490880094908800949086009499E
:105AC00008607047480100202C00002030000020B2
:105AD0002800002076000020780000207A000020B6
